S014000054703366696E616C64656D6F2E737265636A
S11300000C9434000C9451000C9451000C94510045
S11300100C9451000C9451000C9451000C94510018
S11300200C9451000C9451000C9451000C94510008
S11300300C9451000C9451000C9451000C945100F8
S11300400C9451000C9451000C9463010C945100D5
S11300500C9451000C9451000C9451000C945100D8
S11300600C9451000C94510011241FBECFEFD8E022
S1130070DEBFCDBF11E0A0E0B1E0EAEFF6E002C0E0
S113008005900D92A83CB107D9F721E0A8ECB1E0A6
S113009001C01D92AB3CB207E1F70E947E010C94B3
S11300A07B030C94000087B1816087B988B18E7F8F
S11300B088B92FEF89EF90E0215080409040E1F71C
S11300C000C0000088B1816088B925E12A95F1F764
S11300D0000087B18E7F87B98FE792E00197F1F72F
S11300E000C00000089590E080E017C0309BFECF70
S11300F025ED2A95F1F70000309B0EC047E050E053
S1130100491B510921E030E002C0220F331F4A95F8
S1130110E2F7822B3099FECF9F5F983038F3089531
S1130120AF92BF92CF92DF92EF92FF921F93CF9341
S1130130DF9300D000D01F92CDB7DEB77C016B01F6
S11301400E94530088EE93E003C0C901309B05C0B0
S11301509C0121503109892BC1F7232B31F484E010
S113016091E00E943F0381E02CC0FE01319685E0BE
S1130170DF011D928A95E9F710E00CC0A12EB12C85
S11301800E947300E1E0F0E0EC0FFD1FEA0DFB1D9F
S113019080831F5F153090F339818A812B819C8184
S11301A0830F820F890F9D81891731F086E291E0D8
S11301B00E943F0382E005C0F6013083D7012C93EF
S11301C080E00F900F900F900F900F90DF91CF91E0
S11301D01F91FF90EF90DF90CF90BF90AF90089564
S11301E0982F92959F70990F292F220F220F920F0B
S11301F08F70890F0895CF93C82F0E945B0380ED01
S11302000E9467038C2F0E9467030E945B0381EDA9
S11302100E9467030E947103C82F0E9463038C2FFE
S1130220CF9108956F927F928F929F92AF92BF92D7
S1130230CF92DF92EF92FF920F931F93CF93DF93AE
S11302404C015B01EA01390180E00E94FB000E943D
S1130250F000F401808381E00E94FB000E94F00022
S1130260F501808382E00E94FB000E94F0008883F5
S113027083E00E94FB000E94F000F301808384E08D
S11302800E94FB000E94F000F801808385E00E9438
S1130290FB000E94F000F701808386E00E94FB00CF
S11302A00E94F000F6018083DF91CF911F910F919E
S11302B0FF90EF90DF90CF90BF90AF909F908F9082
S11302C07F906F9008951F920F920FB60F92112492
S11302D08F939F938091C600833711F0833539F44F
S11302E09091C80181E0911180E08093C8019F91B1
S11302F08F910F900FBE0F901F9018950E94FE02D1
S11303002FEF83ED90E3215080409040E1F700C04F
S113031000008091C9018F5F8093C9018091C90158
S1130320882371F38091C80181110E940F031092F8
S1130330C901E6CF8091C801882329F081E0809328
S1130340CA011092C9010895CF93DF93DB01EA013A
S11303509A012150310916C0FD01E20FF31F9DECF3
S1130360899F912D1124969596959695792F770FBF
S1130370572F550F550F570F851B805D8083892F8D
S113038021503109332344F7AC0FBD1F1C92DF9178
S1130390CF910895FC01DB0101C031968081811168
S11303A0FCCF03C01196808331968C918111FACFD2
S11303B0108208956F927F928F92AF92CF92EF92B4
S11303C00F931F93CF93DF93CDB7DEB76A970FB622
S11303D0F894DEBF0FBECDBF3C01842F122F42E044
S11303E050E0BE016F5F7F4F0E94A40142E050E0E5
S11303F0BE016B5F7F4F812F0E94A40142E050E059
S1130400BE01675F7F4F802F0E94A40142E050E04D
S1130410BE01645F7F4F8E2D0E94A40142E050E034
S1130420BE01615F7F4F8C2D0E94A40142E050E029
S1130430BE016E5E7F4F8A2D0E94A40142E050E00F
S1130440BE016B5E7F4F882D0E94A40142E050E004
S1130450BE01685E7F4F8FA10E94A401F301108248
S113046063E471E0C3010E94CA01BE016F5F7F4F64
S1130470C3010E94CA016AE471E0C3010E94CA0177
S1130480BE016B5F7F4FC3010E94CA0163E571E047
S1130490C3010E94CA01BE01675F7F4FC3010E946E
S11304A0CA016DE571E0C3010E94CA01BE01645F27
S11304B07F4FC3010E94CA016DE571E0C3010E9430
S11304C0CA01BE01615F7F4FC3010E94CA016FE58B
S11304D071E0C3010E94CA01BE016E5E7F4FC30179
S11304E00E94CA0167E671E0C3010E94CA01BE010D
S11304F06B5E7F4FC3010E94CA0167E671E0C301CE
S11305000E94CA01BE01685E7F4FC3010E94CA01F6
S113051065EC71E0C3010E94CA016A960FB6F894B3
S1130520DEBF0FBECDBFDF91CF911F910F91EF9032
S1130530CF90AF908F907F906F9008958F92AF92ED
S1130540CF92DF92EF92FF920F931F93CF93DF939B
S1130550CDB7DEB7C554D1090FB6F894DEBF0FBED0
S1130560CDBFBE016E5F7F4FCE0101960E94900009
S1130570811129C0CE0109966C0101977C018E017D
S1130580095F1F4F9E012A5F3F4FAE014B5F5F4FD4
S1130590BE016C5F7F4F05970E9412018B818F9380
S11305A08C80AD80C984E8840F812A8149816CE301
S11305B070E0CE010A960E94DA01CE010A960E94EA
S11305C03F030F9004C089E691E00E943F0310921C
S11305D0CA01CB5BDF4F0FB6F894DEBF0FBECDBFB1
S11305E0DF91CF911F910F91FF90EF90DF90CF900B
S11305F0AF908F9008951092CA01089587E60E94E3
S11306001B030E9425030E942B030E94310378944C
S11306100E94FB0282E891E00E943F030895E0916A
S1130620CA01F0E0EE0FFF1FE050FF4F0190F08190
S1130630E02D099508951092C10096E09093C200B0
S11306401092C5008093C4000895E1ECF0E080812D
S1130650886080830895E1ECF0E08081806180838C
S11306600895E1ECF0E080818068808308958091B2
S1130670C00085FFFCCF08958093C6000895EF92D3
S1130680FF920F931F93CF937C01C0E007C00E9499
S11306903703F80180810E943C03CF5F87010C0F70
S11306A0111DF80180818111F2CFCF911F910F911B
S11306B0FF90EF90089584EA8093BC008091BC0081
S11306C08823E4F7089584E98093BC000895809317
S11306D0BB0084E88093BC008091BC008823E4F7CD
S11306E0089584E88093BC008091BC008823E4F7DB
S10D06F08091BB000895F894FFCF39
S11306FA9A019E024572726F723A205469656D704E
S113070A6F206465206573706572612061676F7418
S113071A61646F0D0A004572726F723A204368650C
S113072A636B73756D20696E636F72726563746F40
S113073A0D0A0054454D503A2000B0432048554D07
S113074A3A2000252046454348413A20002F0020FC
S113075A484F52413A20003A004572726F72206142
S113076A6C206C65657220656C2044485431310DE7
S113077A0A0050726573696F6E65206C6120746536
S113078A636C6120277327206F2027532720706109
S113079A726120696E69636961722F646574656E3A
S11307AA657220656C20656E76ED6F206465206441
S10B07BA61746F732E0D0A0037
S9030000FC
